:020000040800F2
:10000000800600206D0100087501000877010008D6
:10001000790100087B0100087D0100080000000054
:100020000000000000000000000000007F01000848
:10003000810100080000000083010008850100081C
:100040008701000887010008870100088701000870
:1000500087010008870100085D02000845030008C9
:100060008701000839040008A90400088701000876
:100070008701000887010008870100088701000840
:100080008701000887010008870100088701000830
:10009000870100088701000887010008DD040008C7
:1000A0008701000887010008870100088701000810
:1000B000D90900082D0B00088701000887010008F6
:1000C00087010008870100088701000887010008F0
:1000D00087010008870100088701000887010008E0
:1000E00087010008870100088701000800F002F876
:1000F00000F02CF80AA090E8000C82448344AAF196
:100100000107DA4501D100F021F8AFF2090EBAE893
:100110000F0013F0010F18BFFB1A43F0010318473B
:100120001C1600002C1600000023002400250026C9
:10013000103A28BF78C1FBD8520728BF30C148BF4A
:100140000B6070471FB51FBD10B510BD00F031F832
:100150001146FFF7F7FF00F0CDFD00F04FF803B4B4
:10016000FFF7F2FF03BC00F057F800000948804792
:1001700009480047FEE7FEE7FEE7FEE7FEE7FEE789
:10018000FEE7FEE7FEE7FEE704480549054A064BA1
:100190007047000071090008ED0000088000002091
:1001A00080060020800200208002002070477047F7
:1001B0007047754600F02CF8AE4605006946534678
:1001C00020F00700854618B020B5FFF7DDFFBDE839
:1001D00020404FF000064FF000074FF000084FF0AE
:1001E000000BAC46ACE8C009ACE8C009ACE8C009FB
:1001F000ACE8C00921F007018D46704710B50446F0
:10020000AFF300802046BDE81040FFF7A8BF000014
:10021000004870470000002001491820ABBEFEE7EF
:10022000260002007047000041F20401C4F20201FE
:10023000086840F4C060086041F21801C4F202018D
:10024000086840F00D00086041F21C01C4F2020190
:10025000086840F0370008607047000080B584B03F
:1002600040F21440C4F201000068C007002867D0C3
:10027000FFE740F21441C4F20101086840F00100B8
:10028000086040F26800C2F2000000780146039165
:1002900020B1FFE70398FF2840D050E040F2700102
:1002A000C2F200010291086849680022019200230D
:1002B000CCF2040300F03AFD019A0B4602994B6020
:1002C0000860086849680023C4F2590301F02FFA56
:1002D00040B9FFE740F27001C2F20001002048601F
:1002E0000860FFE740F27001C2F200010868496847
:1002F0000022009248F60003C4F2D30301F008F88C
:10030000009A0023C4F2590300F0C4FD00F058FF26
:1003100040F63401C4F20001088010E040F27C0095
:10032000C2F2000000680A2808D0FFE740F27C0112
:10033000C2F2000108680A380860FFE7FFE7FFE73C
:1003400004B080BD80B584B040F21440C4F2010016
:100350000068800700286DD5FFE740F21441C4F221
:100360000101086840F00200086040F26800C2F233
:10037000000000780146039120B1FFE70398FF28B1
:1003800043D056E040F27001C2F2000102910868C9
:100390004968002201920023C4F2040300F0C6FC65
:1003A000019A0B4602994B6008600868496800236F
:1003B000C4F2590301F0BBF958B9FFE740F27001EC
:1003C000C2F200010020C4F2590048600020086019
:1003D000FFE740F27001C2F200010868496800229C
:1003E000009248F60003C4F2D30300F091FF009A94
:1003F0000023C4F2590300F04DFD00F0E1FE40F689
:100400003401C4F20001088013E040F27C00C2F223
:10041000000000680A3042F20E71884208D8FFE7F7
:1004200040F27C01C2F2000108680A300860FFE770
:10043000FFE7FFE704B080BD81B040F21440C4F292
:1004400001000068000700282BD5FFE740F21441A7
:10045000C4F20101086840F00800086040F268003A
:10046000C2F200000178C943017000780146009192
:1004700020B1FFE70098FF2809D011E040F20041C9
:10048000C4F20001088840F00100088008E040F252
:100490000041C4F20001088820F001000880FFE755
:1004A000FFE701B07047000040F21440C4F20100C1
:1004B0000068C006002810D5FFE740F21441C4F2DE
:1004C0000101086840F01000086040F26401C2F2C7
:1004D0000001086801300860FFE7704740F21440EF
:1004E000C4F2010000688006002810D5FFE740F242
:1004F0001441C4F20101086840F02000086040F295
:100500006401C2F20001086801300860FFE770472B
:1005100080B586B00821C4F20101002008600C21DA
:10052000C4F201011120086040F20041C4F201014F
:10053000086840F03B00086040F20841C4F2010145
:10054000086840F03B00086040F20C41C4F2010131
:10055000086820F03B0008600A200190022100F0AA
:10056000A7FB17200290012100F0A2FB06200390B8
:10057000032100F09DFB07200490042100F098FB6C
:1005800009200590052100F093FB019800F078FB0D
:10059000029800F075FB039800F072FB049800F0DD
:1005A0006FFB059800F06CFB06B080BD40F60001C3
:1005B000C4F2010144F24440CBF2B240086040F67C
:1005C0000401C4F201014FF04430086040F60042DB
:1005D000C4F2010244F24441C4F64431116040F6D1
:1005E0000441C4F20101086040F60C01C4F20101AB
:1005F0000020086040F60C41C4F201010860704719
:1006000080B582B009200190FF2100F06BF80199BC
:100610000A2000F067F80B20072100F063F80C2097
:10062000012100F05FF80F20002100F05BF802B01C
:1006300080BD000080B586B0059001208DF81300C4
:1006400005980390FFE703984CF6CD41CCF6CC41DA
:10065000A0FB01010020B0EBD10F0FD0FFE79DF808
:10066000130001308DF8130003984CF6CD41CCF601
:10067000CC41A0FB0110C0080390E4E79DF81300F3
:100680000138C1B20B2000F02DF800208DF80B00CE
:10069000FFE79DF80B009DF81310884220DAFFE772
:1006A0009DF80B00013005994CF6CD42CCF6CC42BA
:1006B0000192A1FB0232D20802EB8202A1EB4201BD
:1006C000C0B200F00FF801990598A0FB0110C00816
:1006D0000590FFE79DF80B0001308DF80B00D8E77F
:1006E00006B080BD80B582B08DF807008DF8061089
:1006F0009DF807008DF804009DF806008DF80500B0
:1007000000F01CF801A8022100F056F800F00CF8E7
:1007100002B080BD43F20001C4F20101088840F03C
:10072000400008807047000040F61001C4F201014B
:10073000086840F0100008607047000040F61001A3
:10074000C4F20101086840F480100860704700009E
:1007500041F21801C4F20201086840F480500860B8
:1007600043F20001C4F20101088820F00100088072
:10077000088820F002000880088840F00400088003
:10078000088840F020000880088820F08000088059
:10079000088840F440700880088820F48060088051
:1007A000088820F40060088043F20401C4F20101CB
:1007B000002008807047000084B003900291002060
:1007C0000190FFE701980299884217DAFFE7FFE7F7
:1007D00043F20800C4F2010000888007002801D419
:1007E000FFE7F5E703980199405C43F20C01C4F27E
:1007F00001010880019801300190E3E7FFE743F22F
:100800000800C4F2010000888007002801D4FFE737
:10081000F5E7FFE743F20800C4F201000088000694
:10082000002801D5FFE7F5E743F20C00C4F2010010
:100830000088009043F20800C4F201000088009094
:1008400004B0704780B500F001F880BD84B000208E
:100850000390029041F20001C4F20201086840F4E2
:1008600080300860FFE741F20000C4F20200006837
:1008700000F400300290039801300390FFE70299E2
:100880000020019039B9FFE70398B0F5A06018BFC8
:1008900001200190FFE70198C0070028E3D1FFE79E
:1008A00041F20000C4F2020000688003002803D572
:1008B000FFE70120029002E000200290FFE702988B
:1008C000012851D1FFE742F20001C4F20201086899
:1008D00040F010000860086820F007000860086811
:1008E00040F00200086041F20401C4F202010091EC
:1008F0000868086008680860086840F4806008605C
:10090000086820F47C100860086840F4E81008606B
:1009100041F20001C4F20201086840F080700860F2
:10092000FFE741F20000C4F20200006880010028E5
:1009300001D4FFE7F5E741F20401C4F202010868BF
:1009400020F003000860086840F002000860FFE73C
:1009500041F20400C4F20200006800F00C00082814
:1009600001D0FFE7F4E700E0FFE704B070470000C4
:1009700080B541F20002C4F20202106840F00100AA
:10098000106041F20401C4F2020108680023CFF6AE
:10099000FF031840086010684FF6FF73CFF6F66348
:1009A00018401060106820F480201060086820F45F
:1009B000FE00086041F20801C4F202014FF41F007A
:1009C0000860FFF73FFF4EF60851CEF200014FF0EE
:1009D0000060086080BD000080B582B01021C4F2C4
:1009E00000010020088040F26000C2F2000001789F
:1009F0000131017000780A2807DBFFE740F260014F
:100A0000C2F2000100200870FFE740F26800C2F265
:100A1000000000780146019120B1FFE70198FF280E
:100A20003CD050E040F26400C2F2000000684FF495
:100A3000167148434BF20351CAF27E51A0FB0110DC
:100A4000C00940F26C01C2F20001086040F260008F
:100A5000C2F200000078042811DCFFE740F27C00BD
:100A6000C2F20000006840F26C01C2F200010A68A4
:100A700042F2107100FB0120FFF7DCFD07E040F2BD
:100A80006C00C2F200000068FFF7D4FDFFE740F2FF
:100A90006401C2F200010020086014E040F260002E
:100AA000C2F200000078042808DCFFE740F27C0076
:100AB000C2F200000068FFF7BDFD03E00120FFF770
:100AC000B9FDFFE7FFE702B080BD000080B582B04E
:100AD00041F21C01C4F20201086840F00100086004
:100AE0002821C4F20001232008802C21C4F2000137
:100AF0004CF2503008802420C4F200000021018014
:100B00000C22C4F20002108840F0010010801C206A
:100B1000019000F0CDF8019800F0B2F84FF080415C
:100B2000088840F00100088002B080BD40F210410A
:100B3000C4F200010020088040F27C00C2F20000F4
:100B4000016840F27802C2F200021160006840B110
:100B5000FFE740F27C01C2F200010868013808603A
:100B6000FFE740F27800C2F200000068012814D1CB
:100B7000FFE740F27C00C2F20000006868B9FFE7BE
:100B800040F27001C2F2000100204860086040F6A7
:100B90003401C4F200010880FFE7704780B582B0DD
:100BA00041F21C01C4F20201086840F00200086032
:100BB00040F22841C4F2000140F26710088040F280
:100BC0002C41C4F200014CF25030088040F2244124
:100BD000C4F200010020088040F20C41C4F2000180
:100BE000088840F0010008801D200190062100F0D7
:100BF0005FF8019800F044F840F20041C4F20001AF
:100C0000088840F00100088002B080BD41F21C015C
:100C1000C4F20201086840F00400086040F62801B0
:100C2000C4F200011120088040F62C01C4F200013A
:100C300044F62060088040F62401C4F20001002040
:100C4000088040F63401C4F20001088040F6180123
:100C5000C4F20001088840F06000088040F62001DE
:100C6000C4F20001088840F00100088040F600014D
:100C7000C4F20001088840F00100088070470000BD
:100C800081B08DF803009DF9030000280ED4FFE722
:100C90009DF9031001F01F02012090404A094EF215
:100CA0000011CEF2000141F82200FFE701B07047C9
:100CB00082B08DF8070000919DF9070000280AD442
:100CC000FFE7009800019DF907104EF20042CEF2B6
:100CD000000288540BE0009800019DF8071001F015
:100CE0000F014EF61452CEF200028854FFE702B014
:100CF0007047000080B582B000200190FFF794FAA1
:100D0000FFF754FC62B6FFF781FFFFF701FCFFF726
:100D1000DDFEFFF743FFFFF71BFDFFF705FDFFF7C4
:100D2000F9FCFFF76DFCFFE7FEE7000010B591EA64
:100D3000030F48BF83F0004300F1F083841A71EB86
:100D4000030C05D2121943EB0C03001B61EB0C01E1
:100D50004FEA1154A4EB135CDFF81CE11EEA430FC9
:100D600018BF9EEA445F00F0748021EA045123EA30
:100D70000E0343F48013DCF1200E32D322FA0CFE72
:100D800010EB0E0023FA0CFE41EB0E01CCF1200E0D
:100D900003FA0EFE10EB0E00CCF1200E51F1000113
:100DA000B1F5801F32D201EB045112FA0EF2BDE808
:100DB000104058BF7047401C38BF5FEA420218BF5E
:100DC0007047002814BF20F0010041F100014FEAF4
:100DD000410313F5001F38BF7047A1F1C04100F077
:100DE0008FBB012A43EB0302ACF1200CDCF11F0E98
:100DF00032BF4FF0000E23FA0CF310EB030041EB6F
:100E00000451B4EB115FD0D0A1EB045101F5801176
:100E1000490801EB04515FEA30000ED350F10000A5
:100E200038BF12FA0EFE08D1BDE81040C9E7401CD9
:100E300038BF5FEA4202CAD1C3E7BDE810404FEABB
:100E4000410313F5001F38BF7047A1F1C04100F006
:100E500057BB9EEA445F08D011EA5E0FBDE8104020
:100E600004BF01F0004100207047BDE8104070B59C
:100E700000F0F8FA64FBBE3E0000E0FF491058BFE6
:100E8000C1F140415B1058BFC3F140438B42EFF3C7
:100E9000008070472DE9C04130B4DFF8A4C23CEABD
:100EA000111418BF3CEA131400F0ED801CEA111471
:100EB00081EA030544EAD57418BF1CEA131500F053
:100EC000C880A4EB050404F17F7404F500344FF0EE
:100ED000004545EAC12145EAC32341EA505143EAAE
:100EE00052534FEAC0204FEAC222994208BF9042B3
:100EF00000F09D804FEA13650FF24416765D4FEACD
:100F0000134506FB05F7C7F1807706FB07F74FEAA5
:100F1000D737A7FB03687642A7FB06CEC8F5803813
:100F200038BFA8F1010807FB08E6A6FB028C4FF0CA
:100F3000000EE6FB03CEDCF1000CCEF1004E38BF14
:100F4000AEF1010EA6FB0C584FF00007E6FB0E8732
:100F5000A1FB08C6A0FB07CE16EB0E064FF000055E
:100F600045F10005E1FB076515F1E04E7EBFA4F5F4
:100F700080345FEA46066D4116F1800745F10005B1
:100F80004FEA172747EA05674FEA15254FEA066635
:100F9000A6F1DE46B6F1805F20D9384605EBC47174
:100FA00024F0010C01EB0C11BCF1FE6F02D8F0BC77
:100FB000BDE8008124425CBF01F5801E9EEAC47F2B
:100FC00002D4F0BCBDE80081244200F13980A1F1D7
:100FD000C041F0BCBDE8004100F092BA4FEAD02019
:100FE00040EA41504FEAD1214FEAD22242EA43522D
:100FF0004FEAD323A7FB028607FB036605FB0266C5
:101000001EEA0E0F58BFA6EB0056B6EB00564FEA8D
:10101000520E4EEAC37E18EB0E0E56EB530EBCD5A5
:1010200018EB02085E417F1C55F10005B5E74FF44F
:1010300080154FF000074FF000064FF00008ACE7B6
:1010400001F1C04101F000414FF00000F0BCBDE8EB
:1010500000810CEA131511EA0C1F00D00CE013EA12
:101060000C1F00F026804FF0000081EA030101F020
:101070000041F0BCBDE80081F0BCBDE8004181EA60
:10108000030100F03DBAF0BCBDE8004170B500F0CE
:10109000E9F900BF097EFC3E00F007B84FF0000000
:1010A00081EA030101F00041704781EA030100F089
:1010B00027BAF0BCBDE8004122494FF0000070475C
:1010C000FFFDFBF9F7F5F4F2F0EEEDEBE9E8E6E40D
:1010D000E3E1E0DEDDDBDAD8D7D5D4D3D1D0CFCD94
:1010E000CCCBCAC8C7C6C5C4C2C1C0BFBEBDBCBBCD
:1010F000BAB9B8B7B6B5B4B3B2B1B0AFAEADACABC8
:10110000AAA9A8A8A7A6A5A4A3A3A2A1A09F9F9EA1
:101110009D9C9C9B9A999998979796959594939353
:10112000929191908F8F8E8E8D8C8C8B8B8A8989EA
:10113000888887878685858484838382828181806D
:101140000000FF070000F87F51EA030C17D41CF5DC
:10115000801F58BFBCF5801F00F10680994218BF60
:10116000704708BF9042704707D711F5801F58BFDE
:1011700013F5801F19D499427047894270471CF5B6
:10118000801F08D5BCF5801FF7D58B4218BF70476C
:1011900008BF824270474FF4001C1CEB410F38BF60
:1011A0001CEB430F01D28B42704770B500F05AF927
:1011B000922449004FF000514FF08053FFF75EBE7C
:1011C0004FEA41034FEA5353A3F58063D3F11E0363
:1011D000C8BFD3F1210C0CDD4FF0004242EAC1221E
:1011E00042EA505232FA03FC8CEAE17CACEBE1704B
:1011F0007047102BC4BF0020704703F5787CBCF10A
:10120000FF3F04D06FF0004282EA2100704770B5C2
:1012100000F028F94992248000207047F2E700008E
:1012200051EA030C17D41CF5801F58BFBCF5801F72
:1012300000F10680994218BF704708BF904270477E
:1012400007D711F5801F58BF13F5801F19D4994295
:101250007047894270471CF5801F08D5BCF5801F78
:10126000F7D58B4218BF704708BF824270474FF4D2
:10127000001C1CEB410F38BF1CEB430F01D28B420B
:10128000704770B500F0EEF8922449004FF080519D
:101290004FF00053FFF7F2BD51EA030C17D41CF5D1
:1012A000801F58BFBCF5801F00F10680994218BF0F
:1012B000704708BF9042704707D711F5801F58BF8D
:1012C00013F5801F19D499427047894270471CF565
:1012D000801F08D5BCF5801FF7D58B4218BF70471B
:1012E00008BF824270474FF4001C1CEB410F38BF0F
:1012F0001CEB430F01D28B42704770B500F0B2F87F
:10130000922449004FF000514FF08053FFF7B6BDD3
:1013100070B5DFF848C11CEA111E1EBF1CEA131588
:101320009EEA0C0F95EA0C0F00F06F8081EA03042F
:101330004EEAD47EAE4421EA4C1123EA4C1341F428
:10134000801143F48013AEF17F7EA1FB024CA0FB21
:101350000365361955EB0C05A1FB034C4CF100035A
:10136000A0FB021C16EB0C06654153F10003094279
:1013700018BF46F0010613F4007F0BD14FEA03318A
:101380004FEA053041EA155140EA165034036FF038
:1013900003020AE04FEAC3214FEAC52041EA555152
:1013A00040EA5650F4026FF0020202EB2E4201EBCB
:1013B000025585EACE710AD05FEA440C18BF24F0CA
:1013C000004450F1000041F1000120EAD47040F2E5
:1013D000FE7C624500D270BDA84214BF4FF080442D
:1013E0004FF04044002E08BF0024BEF1806FA8BF1C
:1013F000A1F1C041BDE8704080F2828001F1C0419E
:1014000001F000414FF0000070470CEA13159EEA0E
:101410000C0F18BF95EA0C0F06D081EA030E4FF0AF
:1014200000000EF0004170BD00F01CF88900013E84
:1014300000F007B800F009B84FEA430C5FEA5C5CC3
:1014400008D081EA030100F05BB84FEA410C5FEA83
:101450005C5CF6D102494FF0000070470000FF07C6
:101460000000F87F0EF1020E2EF0030E5EF8046B02
:10147000364205D4012A43EB030515F5001F12D8A7
:10148000012841EB010C1CF5001F0CD80ED14FEACE
:10149000D17C0CEB4C0C0CF1020C15F5001F08BFB5
:1014A0004CEBD37C04E04FF0080C01E04FEAD37C16
:1014B0000CEB4C0526FA05F606F00706B6F1040C0F
:1014C00006D20EEB860CBDE870404CF0010C604774
:1014D000DFE80CF0090B02024FF00041A1F50021FA
:1014E0004FF0000070BD19461046012851EB010471
:1014F00018BFD4F5001484BF002001F0004170BD76
:101500000808A0F500114FEA3101704710B591EAC3
:10151000030F48BF83F000433FF510AC841A71EB12
:10152000030C07D28CF0004C121943EB0C03001B88
:1015300061EB0C014FEA1154A4EB135CDFF8A4E15A
:101540001EEA430F18BF9EEA445F00F0B48021EA10
:10155000045123EA6E035242C3EB6E0338BF5B1E95
:10156000DCF1200E25D322FA0CFE10EB0E0043FA1C
:101570000CFE41EB0E01CCF1200E03FA0EFE10EB37
:101580000E00CCF1200E51F1000129D401EB0451E1
:1015900012FA0EF2BDE8104058BF7047401C1CBF45
:1015A000B2F1004F704700280CBF491C20F0010029
:1015B000704712EB020E43EB030218BF4FF0010E0F
:1015C0004EEA4202ACF1200CDCF11E0E56D943FA71
:1015D0000CFE10EB0E00CCF11E0E51F1FF31D5D5F3
:1015E0000EF1010E12FA0EFE404141EB010101EB3A
:1015F000445C5FEA5C5C10D901EB045110EBDE70D7
:1016000038BFBEF1004FBDE8104018BF704700283A
:101610000CBF491C20F00100704734D24FEAD42C93
:1016200024F4006411F500111BD0B1FA81F20B3AD9
:10163000A41AA41ED2F12003914030FA03F31943F7
:10164000904001EBCC7101EB0451002CBDE810403F
:10165000A8BF704701F1C04101F000414FF0000008
:101660007047B0FA80F310FA03F102D1BDE81040E0
:101670007047E41A173C4805C90AE2E701EB045138
:10168000BDE81040704749104FEA300001EB0451AB
:10169000BDE8104002E04FF0000170474A0008BF6B
:1016A0000042F8D0B2F5001F28BF704701F000419A
:1016B0004FF0000070479EEA445F07D011EA5E0FCA
:1016C000BDE8104004BF002100207047BDE8104075
:1016D00070B5FFF7C7FE00BF40DFF63E104683F04F
:1016E000004170470000E0FF10B5FFF72DFD0CBF73
:1016F0000120002010BD10B5FFF726FD14BF01200A
:10170000002010BD10B5FFF78BFD8CBF012000201D
:1017100010BD10B5FFF784FD2CBF0120002010BDC7
:1017200010B5FFF7B9FD94BF0120002010BD10B522
:10173000FFF7B2FD34BF0120002010BD4C17000898
:0C174000000000208006000028010008C6
:040000050800016D81
:00000001FF
